:1000000025C053C252C20EC150C24FC24EC24DC2D1
:100010004CC24BC24AC249C248C264C146C245C270
:1000200044C243C242C241C240C23FC23EC23DC2BC
:100030003CC23BC23F003F07803F073F080004B47B
:100040003F083F0A803F0A3F0B0004B511241FBE42
:10005000CFEFCDBFDFE3DEBFE4E3F0E040E017C069
:10006000B591A59135912591059107FD0CC095910C
:100070008591EF01F92FE82F05900D92A217B30794
:10008000D9F7FE0104C01D92A217B307E1F7EC34C3
:0C009000F40731F703D0FCC1F894FFCF57
:10009C0088ED84BF85E08093610087E08093200425
:1000AC00E0E0F4E080EF808380E18583B8D1D5D1A6
:1000BC008091073F823041F48093083FE0E2F4E006
:1000CC0091E0958386830AC08091073F813031F49B
:1000DC008093083FB4D187E08093250482E080931D
:1000EC001104E0E1F1E082E191E0828382E791E0AA
:1000FC00828378942FE880ED93E0215080409040EB
:10010C00E1F700C000001092093FC0E0D4E00F2ED0
:10011C00FBE0CF2ED12CF02D0F2EF3E09F2EF02DE7
:10012C000F2EE12CFAE0FF2EF02D6894772474F852
:10013C0000E214E0882483946894662461F80F2EFE
:10014C00F0E4AF2EFAE0BF2EF02D8091073F823005
:10015C0051F0833051F1813009F048C0888583FD1E
:10016C0056C087D154C0888583FD11C09092073F3B
:10017C00F70114A615A67E82F8019682FFE121EA0A
:10018C0087E0F15020408040E1F700C000008091F2
:10019C00093F81111092073F80910A3F90E08897A8
:1001AC00B6012AD1862F00D132C0888583FD2FC09D
:1001BC008091083F823019F46092073F02C0809210
:1001CC00073F7D8280910A3F90E0F70184A795A7B5
:1001DC00F8018582FFE121EA87E0F1502040804060
:1001EC00E1F700C000001092093F11C08091063F5A
:1001FC0081110BC0F894F7011082F50110827E82F8
:10020C001882F80190828092063FF8019682F3E5FD
:08021C00FA95F1F7000099CFFB
:100224001F920F920FB60F9211242F933F934F9367
:100234005F936F937F938F939F93AF93BF93EF934A
:10024400FF938091080482FF0DC080910A3F85507E
:1002540080930A3F80910A3F883280F488E2809339
:100264000A3F0CC080910A3F8B5F80930A3F8091C4
:100274000A3F853618F085E680930A3F8091073F50
:10028400823041F480910A3F90E080932C0A90934D
:100294002D0A09C08091073F813029F480910A3FDB
:1002A400880F80932B0A80910A3F90E088976BE037
:1002B40070E0A6D0862F52D08FEF80930904FF916F
:1002C400EF91BF91AF919F918F917F916F915F91CA
:1002D4004F913F912F910F900FBE0F901F90189543
:1002E4001F921FB61F9211242F933F938F939F93B6
:1002F400809128049091043F83FB882780F9892307
:1003040069F08091003F9091013F01968093003FF6
:100314009093013F893E934098F415C02091003F8B
:100324003091013F2093023F3093033F81E09111CC
:1003340080E08093043F1092003F1092013F03C07D
:1003440081E08093093F81E08093460A9F918F91D9
:0C0354003F912F911F901FBE1F90189525
:100360008F3F59F4E0E0F4E080818F7180838481D5
:100370008F71848381E090E00895E0E0F4E02081D3
:1003800090E0DC01A256BB473C912F7140E2349FC4
:10039000200D112420832481DC01AC55BB479C91A6
:1003A000822F8F7120E2929F800D1124848380E040
:0403B00090E008953C
:1003B400CF93C091053FC81718F48C2FCFDF02C02C
:1003C4008FEFCCDFCF5FC73019F0C093053F02C079
:0803D4001092053FCF9108953E
:1003DC00AA1BBB1B51E107C0AA1FBB1FA617B7075F
:1003EC0010F0A61BB70B881F991F5A95A9F780957B
:0803FC009095BC01CD010895AC
:1004040097FB072E16F4009406D077FD08D0E4DF9E
:1004140007FC05D03EF4909581959F4F0895709503
:0604240061957F4F089571
:10042A00E0E0FAE083E4818384E690E086A397A380
:10043A0082E390E084A795A781E086878083089568
:10044A00E0E0FAE0108281E0838380E2818388EC35
:0C045A0087A382E383A78FE080830895CE
:10046600E0E4FAE081E0858384EC99E0848795876F
:08047600118283E080830895E8
:10047E001092073F83E294EF0197F1F700C000005E
:02048E000895CF
:0E049000EC010DD00BD0CE010BD0CE010AD066
:06049E000606030305053C
:0604A40004020201040144
:0204AA00AACDD9
:0204AC000895B1
:0204AE000895AF
:0204B0000895AD
:0204B200F2DD79
:0104B4000245
:0104B5003214
:00000001FF
