:1000000025C0EEC1EDC1E5C0EBC1EAC1E9C1E8C15F
:10001000E7C1E6C1E5C1E4C1E3C19EC1E1C1E0C100
:10002000DFC1DEC1DDC1DCC1DBC1DAC1D9C1D8C1EC
:10003000D7C1D6C13F003F02803F023F040003EA20
:100040003F043F05803F053F060003EC11241FBE1F
:10005000CFEFCDBFDFE3DEBFE4E3F0E040E017C069
:10006000B591A59135912591059107FD0CC095910C
:100070008591EF01F92FE82F05900D92A217B30794
:10008000D9F7FE0104C01D92A217B307E1F7EC34C3
:0C009000F40731F703D097C1F894FFCFBC
:10009C0088ED84BF83E08093610087E08093200427
:1000AC0080EF809300048091053F823049F45ED14B
:1000BC0036D181E08093250480E18093050408C04B
:1000CC00813031F4E0E2F4E087E0858383E08583DE
:1000DC0082E080931104E0E1F1E089EE90E082830C
:1000EC008CEA91E0828378942FEF83ED90E321509A
:1000FC0080409040E1F700C00000C1E0D0E0E12C6E
:10010C006894FF24F2F800E214E06894CC24C7F859
:10011C00DD24D39466246A946894772471F8882437
:10012C0083940F2EF3E09F2EF02D0F2EA12CFAE0CE
:10013C00BF2EF02D6894552454F802C0C0E0D0E0D6
:10014C008091053F823051F0833081F18130B9F4D8
:10015C00F701808583FD2AC018D128C0F70180855E
:10016C0083FF13D1F801808583FD03C076828582DD
:10017C0003C0F80175828682F601608217C08091F7
:10018C00043F81110AC0F894F5011082F7015682E0
:10019C001082F80190828092043FC938F3E1DF07A6
:1001AC0018F0F801958202C0F80196828FE891E070
:1001BC000197F1F700C000002196C13197E2D907F1
:0601CC0008F0BCCFBDCF1E
:1001D2001F920F920FB60F9211242F933F934F93BA
:1001E2005F936F937F938F939F93AF93BF93EF939D
:1001F200FF938091080482FF19C08091023F909181
:10020200033F40978093023F9093033F8091023FC8
:100212009091033F8034910508F580E490E080934B
:10022200023F9093033F81E055D018C08091023F76
:100232009091033F40968093023F9093033F8091B9
:10024200023F9091033F813A910540F080EA90E0AD
:100252008093023F9093033F85E03CD08091053F1D
:10026200823049F48091023F9091033F80932C0A9F
:1002720090932D0A09C0813039F48091023F909108
:10028200033F885780932B0A2091023F3091033F0E
:1002920020543109AFE3B8EF89D0969587959295AE
:1002A20082958F7089279F70892714D08FEF809352
:1002B2000904FF91EF91BF91AF919F918F917F912F
:1002C2006F915F914F913F912F910F900FBE0F90C1
:0402D2001F901895CC
:1002D6008F3F59F4E0E0F4E080818F718083848160
:1002E6008F71848381E090E00895E0E0F4E020815E
:1002F60090E0DC01AC52BC473C912F7140E2349F48
:10030600200D112420832481DC01A652BC479C9138
:10031600822F8F7120E2929F800D1124848380E0CA
:0403260090E00895C6
:10032A00E0E2F4E0138A84E08283E0E4FAE0818385
:10033A0091E1948391E09583A0E8B1E09DE0139662
:0E034A009C93139752968C9382E080830895C3
:100358008F939F9380914C0A90914D0A8093003F10
:100368009093013F82E0809325049F918F91189587
:10037800E0E0FAE085E4818380EA90E086A397A331
:0E03880080E491E084A795A781E0808308952A
:100396001092053F2FEF81EE94E02150804090406F
:0803A600E1F700C0000008951A
:1003AE00A29FB001B39FC001A39F01D0B29F700D59
:0803BE00811D1124911D089519
:0E03C600EC010DD00BD0CE010BD0CE010AD031
:0603D40006060303050507
:0603DA000402020104010F
:0203E0000FCE3E
:0203E20008957C
:0203E40008957A
:0203E600089578
:0203E80057DEDE
:0203EA00800091
:0103EC00020E
:00000001FF
